{
  "contractName": "ContractWithSafeMath",
  "abi": [
    {
      "constant": true,
      "inputs": [],
      "name": "result",
      "outputs": [
        {
          "name": "",
          "type": "uint256"
        }
      ],
      "payable": false,
      "stateMutability": "view",
      "type": "function"
    },
    {
      "constant": false,
      "inputs": [
        {
          "name": "a",
          "type": "uint256"
        },
        {
          "name": "b",
          "type": "uint256"
        }
      ],
      "name": "addNumbers",
      "outputs": [],
      "payable": false,
      "stateMutability": "nonpayable",
      "type": "function"
    }
  ],
  "bytecode": "0x608060405234801561001057600080fd5b50610117806100206000396000f3006080604052600436106049576000357c0100000000000000000000000000000000000000000000000000000000900463ffffffff1680636537214714604e578063ef9fc50b146076575b600080fd5b348015605957600080fd5b50606060aa565b6040518082815260200191505060405180910390f35b348015608157600080fd5b5060a8600480360381019080803590602001909291908035906020019092919050505060b0565b005b60005481565b60c1818360cb90919063ffffffff16565b6000819055505050565b600080828401905083811015151560e157600080fd5b80915050929150505600a165627a7a723058209da3188915a69e1b4f6753d80e704307ccc61dd8805f661d33da1a0e51de2f860029",
  "source": "pragma solidity ^0.4.24;\n\n/**\n * @title SafeMath\n * @dev Math operations with safety checks that revert on error\n */\nlibrary SafeMath {\n\n  /**\n  * @dev Adds two numbers, reverts on overflow.\n  */\n  function add(uint256 _a, uint256 _b) internal pure returns (uint256) {\n    uint256 c = _a + _b;\n    require(c >= _a);\n\n    return c;\n  }\n\n}\n\ncontract ContractWithSafeMath {\n    using SafeMath for uint;\n\n    uint public result;\n\n    function addNumbers(uint a, uint b) public {\n    /* The add method of the SafeMath library verifies that there is no overflow and \n        reverts the transaction in case of an error. \n        If there are no errors, it returns the result. */\n        result = a.add(b);\n    }\n}",
  "sourcePath": "/Users/alinazayneeva/Desktop/consensys/tarampampam/contracts/LibraryDemo.sol",
  "compiler": {
    "name": "solc",
    "version": "0.4.24+commit.e67f0147.Emscripten.clang"
  },
  "schemaVersion": "2.0.1",
  "updatedAt": "2018-08-21T21:41:16.644Z"
}