{
  "contractName": "DeployAProject",
  "abi": [
    {
      "constant": true,
      "inputs": [
        {
          "name": "",
          "type": "uint256"
        }
      ],
      "name": "deployedProjects",
      "outputs": [
        {
          "name": "",
          "type": "address"
        }
      ],
      "payable": false,
      "stateMutability": "view",
      "type": "function"
    },
    {
      "constant": false,
      "inputs": [
        {
          "name": "minimum",
          "type": "uint256"
        }
      ],
      "name": "createProject",
      "outputs": [],
      "payable": false,
      "stateMutability": "nonpayable",
      "type": "function"
    },
    {
      "constant": true,
      "inputs": [],
      "name": "getDeployedProjects",
      "outputs": [
        {
          "name": "",
          "type": "address[]"
        }
      ],
      "payable": false,
      "stateMutability": "view",
      "type": "function"
    }
  ],
  "bytecode": "0x608060405234801561001057600080fd5b50610f79806100206000396000f300608060405260043610610057576000357c0100000000000000000000000000000000000000000000000000000000900463ffffffff1680637ac3886e1461005c578063992034d7146100c85780639ec6deaf146100f5575b600080fd5b34801561006857600080fd5b50610071610162565b6040518080602001828103825283818151815260200191508051906020019060200280838360005b838110156100b4578082015181840152602081019050610099565b505050509050019250505060405180910390f35b3480156100d457600080fd5b506100f3600480360381019080803590602001909291905050506101f0565b005b34801561010157600080fd5b50610120600480360381019080803590602001909291905050506102c2565b604051808273ffffffffffffffffffffffffffffffffffffffff1673ffffffffffffffffffffffffffffffffffffffff16815260200191505060405180910390f35b606060008054806020026020016040519081016040528092919081815260200182805480156101e657602002820191906000526020600020905b8160009054906101000a900473ffffffffffffffffffffffffffffffffffffffff1673ffffffffffffffffffffffffffffffffffffffff168152602001906001019080831161019c575b5050505050905090565b600081336101fc610300565b808381526020018273ffffffffffffffffffffffffffffffffffffffff1673ffffffffffffffffffffffffffffffffffffffff16815260200192505050604051809103906000f080158015610255573d6000803e3d6000fd5b50905060008190806001815401808255809150509060018203906000526020600020016000909192909190916101000a81548173ffffffffffffffffffffffffffffffffffffffff021916908373ffffffffffffffffffffffffffffffffffffffff160217905550505050565b6000818154811015156102d157fe5b906000526020600020016000915054906101000a900473ffffffffffffffffffffffffffffffffffffffff1681565b604051610c3d80610311833901905600608060405234801561001057600080fd5b50604051604080610c3d833981018060405281019080805190602001909291908051906020019092919050505080600160006101000a81548173ffffffffffffffffffffffffffffffffffffffff021916908373ffffffffffffffffffffffffffffffffffffffff160217905550816002819055505050610ba7806100966000396000f3006080604052600436106100af576000357c0100000000000000000000000000000000000000000000000000000000900463ffffffff16806304270817146100b45780630a07fae6146101475780630a144391146101745780634051ddac146101cf578063481c6a751461024257806382fde0931461029957806388488c33146102c45780638d977672146102f1578063937e09b1146103e35780639f8992731461040e578063d7bb99ba14610439575b600080fd5b3480156100c057600080fd5b50610145600480360381019080803590602001908201803590602001908080601f016020809104026020016040519081016040528093929190818152602001838380828437820191505050505050919291929080359060200190929190803573ffffffffffffffffffffffffffffffffffffffff169060200190929190505050610443565b005b34801561015357600080fd5b50610172600480360381019080803590602001909291905050506105ba565b005b34801561018057600080fd5b506101b5600480360381019080803573ffffffffffffffffffffffffffffffffffffffff1690602001909291905050506106ff565b604051808215151515815260200191505060405180910390f35b3480156101db57600080fd5b506101e461071f565b604051808681526020018581526020018481526020018381526020018273ffffffffffffffffffffffffffffffffffffffff1673ffffffffffffffffffffffffffffffffffffffff1681526020019550505050505060405180910390f35b34801561024e57600080fd5b5061025761077f565b604051808273ffffffffffffffffffffffffffffffffffffffff1673ffffffffffffffffffffffffffffffffffffffff16815260200191505060405180910390f35b3480156102a557600080fd5b506102ae6107a5565b6040518082815260200191505060405180910390f35b3480156102d057600080fd5b506102ef600480360381019080803590602001909291905050506107ab565b005b3480156102fd57600080fd5b5061031c600480360381019080803590602001909291905050506108f6565b60405180806020018681526020018573ffffffffffffffffffffffffffffffffffffffff1673ffffffffffffffffffffffffffffffffffffffff16815260200184151515158152602001838152602001828103825287818151815260200191508051906020019080838360005b838110156103a4578082015181840152602081019050610389565b50505050905090810190601f1680156103d15780820380516001836020036101000a031916815260200191505b50965050505050505060405180910390f35b3480156103ef57600080fd5b506103f8610a00565b6040518082815260200191505060405180910390f35b34801561041a57600080fd5b50610423610a06565b6040518082815260200191505060405180910390f35b610441610a12565b005b61044b610a8e565b600160009054906101000a900473ffffffffffffffffffffffffffffffffffffffff1673ffffffffffffffffffffffffffffffffffffffff163373ffffffffffffffffffffffffffffffffffffffff161415156104a757600080fd5b60a0604051908101604052808581526020018481526020018373ffffffffffffffffffffffffffffffffffffffff16815260200160001515815260200160008152509050600081908060018154018082558091505090600182039060005260206000209060050201600090919290919091506000820151816000019080519060200190610535929190610ad6565b506020820151816001015560408201518160020160006101000a81548173ffffffffffffffffffffffffffffffffffffffff021916908373ffffffffffffffffffffffffffffffffffffffff16021790555060608201518160020160146101000a81548160ff0219169083151502179055506080820151816003015550505050505050565b600080828154811015156105ca57fe5b90600052602060002090600502019050600360003373ffffffffffffffffffffffffffffffffffffffff1673ffffffffffffffffffffffffffffffffffffffff16815260200190815260200160002060009054906101000a900460ff16151561063257600080fd5b8060040160003373ffffffffffffffffffffffffffffffffffffffff1673ffffffffffffffffffffffffffffffffffffffff16815260200190815260200160002060009054906101000a900460ff1615151561068d57600080fd5b60018160040160003373ffffffffffffffffffffffffffffffffffffffff1673ffffffffffffffffffffffffffffffffffffffff16815260200190815260200160002060006101000a81548160ff02191690831515021790555080600301600081548092919060010191905055505050565b60036020528060005260406000206000915054906101000a900460ff1681565b60008060008060006002543073ffffffffffffffffffffffffffffffffffffffff1631600080549050600454600160009054906101000a900473ffffffffffffffffffffffffffffffffffffffff16945094509450945094509091929394565b600160009054906101000a900473ffffffffffffffffffffffffffffffffffffffff1681565b60045481565b6000600160009054906101000a900473ffffffffffffffffffffffffffffffffffffffff1673ffffffffffffffffffffffffffffffffffffffff163373ffffffffffffffffffffffffffffffffffffffff1614151561080957600080fd5b60008281548110151561081857fe5b90600052602060002090600502019050600260045481151561083657fe5b04816003015411151561084857600080fd5b8060020160149054906101000a900460ff1615151561086657600080fd5b60018160020160146101000a81548160ff0219169083151502179055508060020160009054906101000a900473ffffffffffffffffffffffffffffffffffffffff1673ffffffffffffffffffffffffffffffffffffffff166108fc82600101549081150290604051600060405180830381858888f193505050501580156108f1573d6000803e3d6000fd5b505050565b60008181548110151561090557fe5b9060005260206000209060050201600091509050806000018054600181600116156101000203166002900480601f0160208091040260200160405190810160405280929190818152602001828054600181600116156101000203166002900480156109b15780601f10610986576101008083540402835291602001916109b1565b820191906000526020600020905b81548152906001019060200180831161099457829003601f168201915b5050505050908060010154908060020160009054906101000a900473ffffffffffffffffffffffffffffffffffffffff16908060020160149054906101000a900460ff16908060030154905085565b60025481565b60008080549050905090565b60025434111515610a2257600080fd5b6001600360003373ffffffffffffffffffffffffffffffffffffffff1673ffffffffffffffffffffffffffffffffffffffff16815260200190815260200160002060006101000a81548160ff021916908315150217905550600460008154809291906001019190505550565b60a0604051908101604052806060815260200160008152602001600073ffffffffffffffffffffffffffffffffffffffff168152602001600015158152602001600081525090565b828054600181600116156101000203166002900490600052602060002090601f016020900481019282601f10610b1757805160ff1916838001178555610b45565b82800160010185558215610b45579182015b82811115610b44578251825591602001919060010190610b29565b5b509050610b529190610b56565b5090565b610b7891905b80821115610b74576000816000905550600101610b5c565b5090565b905600a165627a7a72305820f738aff1b7e220a65a73dce170f7564b993b013d52f65fefc923c2f91cb3b92c0029a165627a7a723058205e4de6f53b2f2bbe82c0866cadd3eff1883283056e14c2155bc357cf6961ae970029",
  "source": "pragma solidity ^0.4.17;\n\ncontract DeployAProject {\n    address[] public deployedProjects;\n\n    function createProject(uint minimum) public {\n        address newProject = new Project(minimum, msg.sender);\n        deployedProjects.push(newProject);\n    }\n\n    function getDeployedProjects() public view returns (address[]) {\n        return deployedProjects;\n    }\n}\n\ncontract Project {\n    struct Task {\n        string description;\n        uint value;\n        address recipient;\n        bool complete;\n        uint approvalCount;\n        mapping(address => bool) approvals;\n    }\n\n    Task[] public tasks;\n    address public manager;\n    uint public minimumContribution;\n    mapping(address => bool) public approvers;\n    uint public approversCount;\n\n    modifier restricted() {\n        require(msg.sender == manager);\n        _;\n    }\n\n\n    constructor (uint minimum, address creator) public {\n        manager = creator; \n        minimumContribution = minimum;\n    }\n\n    function contribute() public payable {\n        require(msg.value > minimumContribution);\n\n        approvers[msg.sender] = true;\n        approversCount++;\n    }\n\n    function createTask(string description, uint value, address recipient) public restricted {\n        Task memory newTask = Task({\n            description: description,\n            value: value,\n            recipient: recipient,\n            complete: false,\n            approvalCount: 0\n        });\n\n        tasks.push(newTask);\n    }\n\n    function approveTask(uint index) public {\n        Task storage task = tasks[index];\n\n        require(approvers[msg.sender]);\n        require(!task.approvals[msg.sender]);\n\n        task.approvals[msg.sender] = true;\n        task.approvalCount++;\n\n    }\n\n    function finalizeTask(uint index) public restricted {\n        Task storage task = tasks[index];\n\n        require(task.approvalCount > (approversCount / 2));\n        require(!task.complete);\n\n        task.complete = true;\n        task.recipient.transfer(task.value);\n    }\n\n    function getSummary() public view returns (uint, uint, uint, uint, address) {\n        return (\n            minimumContribution,\n            address(this).balance,\n            tasks.length,\n            approversCount,\n            manager\n        );\n    }\n\n    function getTasksCount() public view returns (uint) {\n        return tasks.length;\n    }\n}",
  "sourcePath": "/Users/alinazayneeva/Desktop/consensys/tarampampam/contracts/Project.sol",
  "compiler": {
    "name": "solc",
    "version": "0.4.24+commit.e67f0147.Emscripten.clang"
  },
  "schemaVersion": "2.0.1",
  "updatedAt": "2018-08-21T21:42:12.156Z"
}